{
  "contractName": "GrainOfSalt",
  "abi": [
    {
      "constant": true,
      "inputs": [
        {
          "name": "",
          "type": "bytes32"
        }
      ],
      "name": "lastUpdated",
      "outputs": [
        {
          "name": "",
          "type": "uint256"
        }
      ],
      "payable": false,
      "stateMutability": "view",
      "type": "function"
    },
    {
      "constant": true,
      "inputs": [
        {
          "name": "",
          "type": "bytes32"
        }
      ],
      "name": "scoreOf",
      "outputs": [
        {
          "name": "",
          "type": "uint256"
        }
      ],
      "payable": false,
      "stateMutability": "view",
      "type": "function"
    },
    {
      "constant": true,
      "inputs": [],
      "name": "owner",
      "outputs": [
        {
          "name": "",
          "type": "address"
        }
      ],
      "payable": false,
      "stateMutability": "view",
      "type": "function"
    },
    {
      "constant": true,
      "inputs": [
        {
          "name": "",
          "type": "bytes32"
        }
      ],
      "name": "users",
      "outputs": [
        {
          "name": "",
          "type": "bool"
        }
      ],
      "payable": false,
      "stateMutability": "view",
      "type": "function"
    },
    {
      "inputs": [],
      "payable": false,
      "stateMutability": "nonpayable",
      "type": "constructor"
    },
    {
      "anonymous": false,
      "inputs": [
        {
          "indexed": false,
          "name": "name",
          "type": "bytes32"
        }
      ],
      "name": "AddedUser",
      "type": "event"
    },
    {
      "anonymous": false,
      "inputs": [
        {
          "indexed": false,
          "name": "name",
          "type": "bytes32"
        },
        {
          "indexed": false,
          "name": "score",
          "type": "uint256"
        }
      ],
      "name": "UpdatedScore",
      "type": "event"
    },
    {
      "anonymous": false,
      "inputs": [
        {
          "indexed": false,
          "name": "user",
          "type": "bytes32"
        },
        {
          "indexed": false,
          "name": "post",
          "type": "bytes32"
        }
      ],
      "name": "AddedPost",
      "type": "event"
    },
    {
      "constant": false,
      "inputs": [
        {
          "name": "name",
          "type": "bytes32"
        }
      ],
      "name": "addUser",
      "outputs": [],
      "payable": false,
      "stateMutability": "nonpayable",
      "type": "function"
    },
    {
      "constant": false,
      "inputs": [
        {
          "name": "name",
          "type": "bytes32"
        },
        {
          "name": "post",
          "type": "bytes32"
        }
      ],
      "name": "addPost",
      "outputs": [],
      "payable": false,
      "stateMutability": "nonpayable",
      "type": "function"
    },
    {
      "constant": false,
      "inputs": [
        {
          "name": "name",
          "type": "bytes32"
        },
        {
          "name": "score",
          "type": "uint256"
        }
      ],
      "name": "updateScore",
      "outputs": [],
      "payable": false,
      "stateMutability": "nonpayable",
      "type": "function"
    },
    {
      "constant": true,
      "inputs": [
        {
          "name": "name",
          "type": "bytes32"
        }
      ],
      "name": "getPosts",
      "outputs": [
        {
          "name": "",
          "type": "bytes32[]"
        }
      ],
      "payable": false,
      "stateMutability": "view",
      "type": "function"
    }
  ],
  "bytecode": "0x608060405234801561001057600080fd5b50336000806101000a81548173ffffffffffffffffffffffffffffffffffffffff021916908373ffffffffffffffffffffffffffffffffffffffff16021790555061082a806100606000396000f30060806040526004361061008e576000357c0100000000000000000000000000000000000000000000000000000000900463ffffffff168063060eb2f51461009357806352db3b28146100d85780636c89be151461011d5780638da5cb5b1461015c5780638faf850d146101b3578063ce438c16146101e4578063cea6ab981461026a578063f61b51ee146102b3575b600080fd5b34801561009f57600080fd5b506100c260048036038101908080356000191690602001909291905050506102ee565b6040518082815260200191505060405180910390f35b3480156100e457600080fd5b506101076004803603810190808035600019169060200190929190505050610306565b6040518082815260200191505060405180910390f35b34801561012957600080fd5b5061015a6004803603810190808035600019169060200190929190803560001916906020019092919050505061031e565b005b34801561016857600080fd5b50610171610452565b604051808273ffffffffffffffffffffffffffffffffffffffff1673ffffffffffffffffffffffffffffffffffffffff16815260200191505060405180910390f35b3480156101bf57600080fd5b506101e26004803603810190808035600019169060200190929190505050610477565b005b3480156101f057600080fd5b50610213600480360381019080803560001916906020019092919050505061060b565b6040518080602001828103825283818151815260200191508051906020019060200280838360005b8381101561025657808201518184015260208101905061023b565b505050509050019250505060405180910390f35b34801561027657600080fd5b5061029960048036038101908080356000191690602001909291905050506106bd565b604051808215151515815260200191505060405180910390f35b3480156102bf57600080fd5b506102ec6004803603810190808035600019169060200190929190803590602001909291905050506106dd565b005b60036020528060005260406000206000915090505481565b60026020528060005260406000206000915090505481565b6000809054906101000a900473ffffffffffffffffffffffffffffffffffffffff1673ffffffffffffffffffffffffffffffffffffffff163373ffffffffffffffffffffffffffffffffffffffff1614151561037957600080fd5b6001151560016000846000191660001916815260200190815260200160002060009054906101000a900460ff1615151415156103b457600080fd5b6004600083600019166000191681526020019081526020016000208190806001815401808255809150509060018203906000526020600020016000909192909190915090600019169055507fc9f2063d51ccc50ff7ae4f231c6293437aaf9cf6da3975c02b574a104be253b5828260405180836000191660001916815260200182600019166000191681526020019250505060405180910390a15050565b6000809054906101000a900473ffffffffffffffffffffffffffffffffffffffff1681565b6000809054906101000a900473ffffffffffffffffffffffffffffffffffffffff1673ffffffffffffffffffffffffffffffffffffffff163373ffffffffffffffffffffffffffffffffffffffff161415156104d257600080fd5b6000151560016000836000191660001916815260200190815260200160002060009054906101000a900460ff16151514151561050d57600080fd5b6001806000836000191660001916815260200190815260200160002060006101000a81548160ff02191690831515021790555060006002600083600019166000191681526020019081526020016000208190555042600360008360001916600019168152602001908152602001600020819055507f41c3476bbbecd69141f1ffbe82a349d24ee2fc38d5fdeb858597d9ba45c95d178160405180826000191660001916815260200191505060405180910390a17ff5f1a4c3efec8e0f1c16274918c82b793da2161e22095c56cac9f93c5b8274c38160006040518083600019166000191681526020018281526020019250505060405180910390a150565b60606001151560016000846000191660001916815260200190815260200160002060009054906101000a900460ff16151514151561064857600080fd5b6004600083600019166000191681526020019081526020016000208054806020026020016040519081016040528092919081815260200182805480156106b157602002820191906000526020600020905b81546000191681526020019060010190808311610699575b50505050509050919050565b60016020528060005260406000206000915054906101000a900460ff1681565b6000809054906101000a900473ffffffffffffffffffffffffffffffffffffffff1673ffffffffffffffffffffffffffffffffffffffff163373ffffffffffffffffffffffffffffffffffffffff1614151561073857600080fd5b6001151560016000846000191660001916815260200190815260200160002060009054906101000a900460ff16151514151561077357600080fd5b806002600084600019166000191681526020019081526020016000208190555042600360008460001916600019168152602001908152602001600020819055507ff5f1a4c3efec8e0f1c16274918c82b793da2161e22095c56cac9f93c5b8274c382826040518083600019166000191681526020018281526020019250505060405180910390a150505600a165627a7a7230582057f0509e4f226c8f9799f5f5deb9242de46a623c19c00f4f33f2eabc4e300a1b0029",
  "source": "pragma solidity ^0.4.23;\n\ncontract GrainOfSalt {\n    \n  /* STATE VARIABLES */\n  address public owner;\n  \n  /* MAPPINGS*/\n  mapping(bytes32 => bool) public users;\n  mapping(bytes32 => uint) public scoreOf;\n  mapping(bytes32 => uint) public lastUpdated;\n  mapping(bytes32 => bytes32[]) postsOf;\n  \n  /* MODIFIERS */\n  modifier onlyOwner() {\n      require(msg.sender == owner);\n      _;\n  }\n  \n  /* EVENTS */\n  event AddedUser(bytes32 name);\n  event UpdatedScore(bytes32 name, uint score);\n  event AddedPost(bytes32 user, bytes32 post);\n  \n  \n  constructor() public {\n    owner = msg.sender;\n  }\n  \n  function addUser(bytes32 name) onlyOwner public {\n    require(users[name] == false);\n    users[name] = true;\n    scoreOf[name] = 0;\n    lastUpdated[name] = now;\n    emit AddedUser(name);\n    emit UpdatedScore(name, 0);\n  }\n  \n  function addPost(bytes32 name, bytes32 post) onlyOwner public {\n    require(users[name] == true);\n    postsOf[name].push(post);\n    emit AddedPost(name, post);\n  }\n  \n  function updateScore(bytes32 name, uint score) onlyOwner public {\n    require(users[name] == true);\n    scoreOf[name] = score;\n    lastUpdated[name] = now;\n    emit UpdatedScore(name, score);\n  }\n  \n  function getPosts(bytes32 name) view public returns(bytes32[]) {\n    require(users[name] == true);\n    return postsOf[name];\n  }\n    \n}",
  "sourcePath": "/home/tomisin/Desktop/grain-of-salt/contracts/GrainOfSalt.sol",
  "compiler": {
    "name": "solc",
    "version": "0.4.23+commit.124ca40d.Emscripten.clang"
  },
  "schemaVersion": "2.0.0",
  "updatedAt": "2018-04-21T23:43:54.057Z"
}